:020000040800F2
:1000000000000220017700085177000851770008AE
:100010005177000851770008517700080000000070
:100020000000000000000000000000005177000800
:100030005177000800000000517700089156000831
:100040005177000800000000517700085177000840
:1000500051770008517700082D40000857400008EC
:1000600081400008AB400008D540000851770008E7
:100070005177000851770008517700085177000840
:100080005177000851770008517700085177000830
:10009000517700085177000851770008FF400008A9
:1000A0005177000851770008517700085177000810
:1000B0005177000851770008517700085177000800
:1000C00051770008517700085177000851770008F0
:1000D00051770008915C0008295D000851770008FD
:1000E00051770008517700085177000851770008D0
:1000F00051770008517700085177000851770008C0
:10010000517700080000000051770008517700087F
:10011000517700085177000851770008517700089F
:10012000517700085177000851770008517700088F
:10013000517700085177000851770008517700087F
:10014000517700085177000851770008517700086F
:10015000517700085177000851770008517700085F
:1001600051770008517700080000000000000000EF
:1001700000000000000000005177000800000000AF
:1001800000000000517700085177000851770008FF
:10019000517700080000000000000000000000008F
:0801A0005177000851770008B7
:1001B00081F0004102E000BF83F0004330B54FEA18
:1001C00041044FEA430594EA050F08BF90EA020F85
:1001D0001FBF54EA000C55EA020C7FEA645C7FEA18
:1001E000655C00F0E2804FEA5454D4EB5555B8BF3B
:1001F0006D420CDD2C4480EA020281EA030382EAAC
:10020000000083EA010180EA020281EA0303362D3D
:1002100088BF30BD11F0004F4FEA01314FF4801C10
:100220004CEA113102D0404261EB410113F0004F22
:100230004FEA03334CEA133302D0524263EB4303D9
:1002400094EA050F00F0A780A4F10104D5F1200E77
:100250000DDB02FA0EFC22FA05F2801841F10001D2
:1002600003FA0EF2801843FA05F359410EE0A5F1A6
:1002700020050EF1200E012A03FA0EFC28BF4CF0D7
:10028000020C43FA05F3C01851EBE37101F000458D
:1002900007D54FF0000EDCF1000C7EEB00006EEB9A
:1002A0000101B1F5801F1BD3B1F5001F0CD3490824
:1002B0005FEA30004FEA3C0C04F101044FEA44527B
:1002C00012F5800F80F09A80BCF1004F08BF5FEA02
:1002D000500C50F1000041EB045141EA050130BDE2
:1002E0005FEA4C0C404141EB0101013C28BFB1F5F4
:1002F000801FE9D291F0000F04BF01460020B1FA3F
:1003000081F308BF2033A3F10B03B3F120020CDA11
:100310000C3208DD02F1140CC2F10C0201FA0CF0EF
:1003200021FA02F10CE002F11402D8BFC2F1200C54
:1003300001FA02F120FA0CFCDCBF41EA0C0190400A
:10034000E41AA2BF01EB0451294330BD6FEA040453
:100350001F3C1CDA0C340EDC04F11404C4F120023E
:1003600020FA04F001FA02F340EA030021FA04F350
:1003700045EA030130BDC4F10C04C4F1200220FAA7
:1003800002F001FA04F340EA0300294630BD21FAE5
:1003900004F0294630BD94F0000F83F4801306BFAB
:1003A00081F480110134013D4EE77FEA645C18BF9F
:1003B0007FEA655C29D094EA050F08BF90EA020F36
:1003C00005D054EA000C04BF1946104630BD91EA2E
:1003D000030F1EBF0021002030BD5FEA545C05D131
:1003E0004000494128BF41F0004130BD14F5800470
:1003F0003CBF01F5801130BD01F0004545F0FE41E4
:1004000041F470014FF0000030BD7FEA645C1ABF18
:10041000194610467FEA655C1CBF0B46024650EA4F
:10042000013406BF52EA033591EA030F41F400217B
:1004300030BD00BF90F0000F04BF0021704730B501
:100440004FF4806404F132044FF000054FF00001D6
:1004500050E700BF90F0000F04BF0021704730B597
:100460004FF4806404F1320410F0004548BF40426C
:100470004FF000013EE700BF42004FEAE2014FEAC1
:1004800031014FEA02701FBF12F07F4393F07F4F9C
:1004900081F06051704732F07F4208BF704793F09F
:1004A0007F4F04BF41F40021704730B54FF46074B2
:1004B00001F0004521F000411CE700BF50EA0102B5
:1004C00008BF704730B54FF000050AE050EA01025E
:1004D00008BF704730B511F0004502D5404261EBCE
:1004E00041014FF4806404F132045FEA915C3FF40F
:1004F000D8AE4FF003025FEADC0C18BF03325FEAAC
:10050000DC0C18BF033202EBDC02C2F1200300FA5C
:1005100003FC20FA02F001FA03FE40EA0E0021FA81
:1005200002F11444BDE600BF70B54FF0FF0C4CF46F
:10053000E06C1CEA11541DBF1CEA135594EA0C0F21
:1005400095EA0C0F00F0DEF82C4481EA030621EA5C
:100550004C5123EA4C5350EA013518BF52EA033597
:1005600041F4801143F4801338D0A0FB02CE4FF049
:100570000005E1FB02E506F00042E0FB03E54FF079
:100580000006E1FB03569CF0000F18BF4EF0010E71
:10059000A4F1FF04B6F5007F64F5407404D25FEA6D
:1005A0004E0E6D4146EB060642EAC62141EA555120
:1005B0004FEAC52040EA5E504FEACE2EB4F1FD0C62
:1005C00088BFBCF5E06F1ED8BEF1004F08BF5FEAE0
:1005D000500E50F1000041EB045170BD06F0004692
:1005E00046EA010140EA020081EA0301B4EB5C043F
:1005F000C2BFD4EB0C0541EA045170BD41F4801137
:100600004FF0000E013C00F3AB8014F1360FDEBF5B
:10061000002001F0004170BDC4F10004203C35DA37
:100620000C341BDC04F11404C4F1200500FA05F3BA
:1006300020FA04F001FA05F240EA020001F000425B
:1006400021F0004110EBD37021FA04F642EB0601D1
:100650005EEA430E08BF20EAD37070BDC4F10C04FB
:10066000C4F1200500FA04F320FA05F001FA04F2BF
:1006700040EA020001F0004110EBD37041F10001AB
:100680005EEA430E08BF20EAD37070BDC4F12005B6
:1006900000FA05F24EEA020E20FA04F301FA05F21E
:1006A00043EA020321FA04F001F0004121FA04F2C6
:1006B00020EA020000EBD3705EEA430E08BF20EA96
:1006C000D37070BD94F0000F0FD101F000464000D0
:1006D00041EB010111F4801F08BF013CF7D041EA52
:1006E000060195F0000F18BF704703F00046520056
:1006F00043EB030313F4801F08BF013DF7D043EA27
:100700000603704794EA0C0F0CEA135518BF95EADC
:100710000C0F0CD050EA410618BF52EA4306D1D163
:1007200081EA030101F000414FF0000070BD50EA82
:10073000410606BF1046194652EA430619D094EA0C
:100740000C0F02D150EA013613D195EA0C0F05D1F6
:1007500052EA03361CBF104619460AD181EA03014A
:1007600001F0004141F0FE4141F470014FF0000002
:1007700070BD41F0FE4141F4780170BD70B54FF09D
:10078000FF0C4CF4E06C1CEA11541DBF1CEA13551D
:1007900094EA0C0F95EA0C0F00F0A7F8A4EB0504FF
:1007A00081EA030E52EA03354FEA013100F08880F6
:1007B0004FEA03334FF0805545EA131343EA1263BF
:1007C0004FEA022245EA111545EA10654FEA002674
:1007D0000EF000419D4208BF964244F1FD0404F52D
:1007E000407402D25B084FEA3202B61A65EB030589
:1007F0005B084FEA32024FF480104FF4002CB6EB46
:10080000020E75EB030E22BFB61A754640EA0C00C5
:100810005B084FEA3202B6EB020E75EB030E22BF05
:10082000B61A754640EA5C005B084FEA3202B6EB46
:10083000020E75EB030E22BFB61A754640EA9C0005
:100840005B084FEA3202B6EB020E75EB030E22BFD5
:10085000B61A754640EADC0055EA060E18D04FEA93
:10086000051545EA16754FEA06164FEAC30343EA33
:1008700052734FEAC2025FEA1C1CC0D111F4801F00
:100880000BD141EA00014FF000004FF0004CB6E7F9
:1008900011F4801F04BF01430020B4F1FD0C88BF98
:1008A000BCF5E06F3FF6AFAEB5EB030C04BFB6EBA3
:1008B000020C5FEA500C50F1000041EB045170BD96
:1008C0000EF0004E4EEA113114EB5C04C2BFD4EBC3
:1008D0000C0541EA045170BD41F480114FF0000E47
:1008E000013C90E645EA060E8DE60CEA135594EAC3
:1008F0000C0F08BF95EA0C0F3FF43BAF94EA0C0FC6
:100900000AD150EA01347FF434AF95EA0C0F7FF43A
:1009100025AF104619462CE795EA0C0F06D152EA8E
:1009200003353FF4FDAE1046194622E750EA410672
:1009300018BF52EA43067FF4C5AE50EA41047FF483
:100940000DAF52EA43057FF4EBAE12E74A0011D235
:1009500012F5001211D20DD56FF47873B3EB625219
:100960000ED44FEAC12343F0004343EA505323FA25
:1009700002F070474FF00000704750EA013002D19A
:100980004FF0FF3070474FF0000070474FEA4102D0
:10099000B2F1E04324BFB3F5001CDCF1FE5C0DD9DD
:1009A00001F0004C4FEAC0024CEA5070B2F1004F27
:1009B00040EB830008BF20F00100704711F0804F2A
:1009C00021D113F13872BCBF01F00040704741F4EF
:1009D00080114FEA5252C2F11802C2F1200C10FAF3
:1009E0000CF320FA02F018BF40F001004FEAC123D7
:1009F0004FEAD32303FA0CFC40EA0C0023FA02F37B
:100A00004FEA4303CCE77FEA625307D150EA013350
:100A10001EBF4FF0FE4040F44000704701F0004020
:100A200040F0FE4040F40000704700BF80F00040FE
:100A300002E000BF81F0004142001FBF5FEA4103B6
:100A400092EA030F7FEA226C7FEA236C6AD04FEAB6
:100A50001262D2EB1363C1BFD218414048404140FB
:100A6000B8BF5B42192B88BF704710F0004F40F4AD
:100A7000000020F07F4018BF404211F0004F41F4C9
:100A8000000121F07F4118BF494292EA030F3FD095
:100A9000A2F1010241FA03FC10EB0C00C3F12003A8
:100AA00001FA03F100F0004302D5494260EB400037
:100AB000B0F5000F13D3B0F1807F06D340084FEAA2
:100AC000310102F10102FE2A51D2B1F1004F40EB97
:100AD000C25008BF20F0010040EA030070474900FF
:100AE00040EB0000013A28BFB0F5000FEDD2B0FA9C
:100AF00080FCACF1080CB2EB0C0200FA0CF0AABFBF
:100B000000EBC25052421843BCBFD040184370475C
:100B100092F0000F81F4000106BF80F40000013262
:100B2000013BB5E74FEA41037FEA226C18BF7FEA39
:100B3000236C21D092EA030F04D092F0000F08BF7B
:100B40000846704790EA010F1CBF0020704712F062
:100B50007F4F04D1400028BF40F00040704712F1A1
:100B600000723CBF00F50000704700F0004343F006
:100B7000FE4040F4000070477FEA226216BF08463C
:100B80007FEA23630146420206BF5FEA412390EAFF
:100B9000010F40F4800070474FF0000304E000BFF5
:100BA00010F0004348BF40425FEA000C08BF7047A6
:100BB00043F0964301464FF000001CE050EA01026A
:100BC00008BF70474FF000030AE000BF50EA01027F
:100BD00008BF704711F0004302D5404261EB41016C
:100BE0005FEA010C02BF84460146002043F0B64391
:100BF00008BFA3F18053A3F50003BCFA8CF2083AB6
:100C0000A3EBC25310DB01FA02FC634400FA02FCBE
:100C1000C2F12002BCF1004F20FA02F243EB0200C5
:100C200008BF20F00100704702F1200201FA02FC27
:100C3000C2F1200250EA4C0021FA02F243EB02001A
:100C400008BF20EADC7070474FF0FF0C1CEAD0525E
:100C50001EBF1CEAD15392EA0C0F93EA0C0F6FD01F
:100C60001A4480EA010C400218BF5FEA41211ED0FD
:100C70004FF0006343EA501043EA5111A0FB0131E9
:100C80000CF00040B1F5000F3EBF490041EAD371BE
:100C90005B0040EA010062F17F02FD2A1DD8B3F13A
:100CA000004F40EBC25008BF20F00100704790F0A9
:100CB000000F0CF0004C08BF49024CEA502040EAFB
:100CC00051207F3AC2BFD2F1FF0340EAC2507047C1
:100CD00040F400004FF00003013A5DDC12F1190FFF
:100CE000DCBF00F000407047C2F10002410021FA71
:100CF00002F1C2F1200200FA02FC5FEA310040F189
:100D0000000053EA4C0308BF20EADC70704792F001
:100D1000000F00F0004C02BF400010F4000F013A39
:100D2000F9D040EA0C0093F0000F01F0004C02BF34
:100D3000490011F4000F013BF9D041EA0C018FE7A3
:100D40000CEAD15392EA0C0F18BF93EA0C0F0AD0A9
:100D500030F0004C18BF31F0004CD8D180EA0100CF
:100D600000F00040704790F0000F17BF90F0004F68
:100D7000084691F0000F91F0004F14D092EA0C0F4A
:100D800001D142020FD193EA0C0F03D14B0218BFDD
:100D9000084608D180EA010000F0004040F0FE4023
:100DA00040F40000704740F0FE4040F440007047BF
:100DB0004FF0FF0C1CEAD0521EBF1CEAD15392EA3E
:100DC0000C0F93EA0C0F69D0A2EB030280EA010C2E
:100DD00049024FEA402037D04FF0805343EA1111C7
:100DE00043EA10130CF000408B4238BF5B0042F125
:100DF0007D024FF4000C8B4224BF5B1A40EA0C00CA
:100E0000B3EB510F24BFA3EB510340EA5C00B3EBFB
:100E1000910F24BFA3EB910340EA9C00B3EBD10FE9
:100E200024BFA3EBD10340EADC001B0118BF5FEA3B
:100E30001C1CE0D1FD2A3FF650AF8B4240EBC25064
:100E400008BF20F0010070470CF0004C4CEA502025
:100E50007F32C2BFD2F1FF0340EAC250704740F474
:100E600000004FF00003013A37E792F0000F00F066
:100E7000004C02BF400010F4000F013AF9D040EAE4
:100E80000C0093F0000F01F0004C02BF490011F478
:100E9000000F013BF9D041EA0C0195E70CEAD15370
:100EA00092EA0C0F08D142027FF47DAF93EA0C0F57
:100EB0007FF470AF084676E793EA0C0F04D14B023B
:100EC0003FF44CAF08466EE730F0004C18BF31F0ED
:100ED000004CCAD130F000427FF45CAF31F00043E7
:100EE0007FF43CAF5FE700BF4FF0FF3C06E000BF80
:100EF0004FF0010C02E000BF4FF0010C4DF804CDA3
:100F00004FEA40024FEA41037FEA226C18BF7FEAB2
:100F1000236C11D001B052EA530C18BF90EA010FB4
:100F200058BFB2EB030088BFC81738BF6FEAE17043
:100F300018BF40F0010070477FEA226C02D15FEADF
:100F4000402C05D17FEA236CE4D15FEA412CE1D04B
:100F50005DF8040B704700BF844608466146FFE712
:100F60000FB5FFF7C9FF002848BF10F1000F0FBDF4
:100F70004DF808EDFFF7F4FF0CBF012000205DF8ED
:100F800008FB00BF4DF808EDFFF7EAFF34BF012072
:100F900000205DF808FB00BF4DF808EDFFF7E0FF0B
:100FA00094BF012000205DF808FB00BF4DF808ED5C
:100FB000FFF7D2FF94BF012000205DF808FB00BFBF
:100FC0004DF808EDFFF7C8FF34BF012000205DF8A1
:100FD00008FB00BF4FEA4002B2F1FE4F0FD34FF0C3
:100FE0009E03B3EB12620DD94FEA002343F0004396
:100FF00010F0004F23FA02F018BF404270474FF044
:101000000000704712F1610F01D1420205D110F0CA
:10101000004008BF6FF0004070474FF0000070477D
:101020007BB972B90029BEBF00204FF0004106E035
:1010300008BF00281CBF6FF000414FF0FF3000F0E8
:1010400015B9ADF1080C6DE904CE002909DB002BC0
:101050001ADB07F0E5FFDDF804E0DDE9022304B068
:101060007047404261EB4101002B1BDB07F0D8FFCA
:10107000DDF804E0DDE9022304B0404261EB410108
:10108000524263EB43037047524263EB430307F062
:10109000C7FFDDF804E0DDE9022304B0404261EB64
:1010A00041017047524263EB430307F0B9FFDDF89B
:1010B00004E0DDE9022304B0524263EB43037047CE
:1010C00000F1340191E838009C46A6464CF8045DD6
:1010D00090E8FF0FE54600BD90EC210B704700BF84
:1010E00080EC210B704700BF90EC200B704700BFD5
:1010F00080EC200B704700BFD0EC200B704700BF86
:10110000C0EC200B704700BFF0EC0201F0EC0211C4
:10111000F0EC0221F0EC0231F0EC0241F0EC025173
:10112000F0EC0261F0EC0271F0EC0281F0EC029163
:10113000F0EC02A1F0EC02B1F0EC02C1F0EC02D153
:10114000F0EC02E1F0EC02F1704700BFE0EC0201CC
:10115000E0EC0211E0EC0221E0EC0231E0EC0241B3
:10116000E0EC0251E0EC0261E0EC0271E0EC0281A3
:10117000E0EC0291E0EC02A1E0EC02B1E0EC02C193
:10118000E0EC02D1E0EC02E1E0EC02F1704700BFDC
:10119000B0FC0181B0FC0191B0FC01A1B0FC01B137
:1011A000704700BFA0FC0181A0FC0191A0FC01A13F
:1011B000A0FC01B1704700BFEC4600B52DE900501E
:1011C0002DE9FF1F4FF000032DE90C0001A908F0E5
:1011D000B4F9DDF840E012B0704700BFEC4600B54E
:1011E0002DE900502DE9FF1F4FF000032DE90C0001
:1011F00001A908F0D9F9DDF840E012B0704700BF4E
:10120000EC4600B52DE900502DE9FF1F4FF000031B
:101210002DE90C0001A908F0E7F9DDF840E012B073
:10122000704700BFEC4600B52DE900502DE9FF1FC7
:101230004FF000032DE90C0001AB08F0ABF9DDF82D
:1012400040E012B0704700BFEC4600B52DE90050F9
:101250002DE9FF1F4FF000032DE90C0001AA08F053
:1012600015FADDF840E012B0704700BF704700BFCC
:1012700010F8012B11F8013B012A28BF9A42F7D040
:10128000D01A7047034613F8012B002AFBD1181A15
:10129000013870470000000000000000000000005E
:1012A00001F0FF01102A2BDB10F0070F08D010F817
:1012B000013B013A8B422DD010F0070F42B3F6D11B
:1012C000F0B441EA012141EA014122F007047FF034
:1012D00000070023F0E80256083C85EA010586EA8B
:1012E000010685FA47F5A3FA87F586FA47F6A5FAC7
:1012F00087F68EB9EED1F0BC01F0FF0102F00702D3
:1013000032B110F8013B013A83EA010313B1F8D17D
:101310000020704701387047002D06BF354603385E
:10132000073815F0010F07D1013015F4807F02BF97
:10133000013015F4C03F0130F0BC0138704700BFE8
:1013400010B5054C227832B9044B13B10448AFF301
:1013500000800123237010BD8800002000000000E1
:1013600084A8000808B5034B1BB103490348AFF339
:10137000008008BD000000008C00002084A8000848
:1013800080B483B000AF7860054A7B6843F0BF63E8
:1013900043F40033D36000BF0C37BD4680BC7047B8
:1013A00000ED00E080B485B000AF786000237B736F
:1013B0000023BB730F23FB737B68DB78002B39D0D2
:1013C000274BDB68DB431B0ADBB203F007037B73AD
:1013D0007B7BC3F10403BB73FA7B7B7B42FA03F391
:1013E000FB737B685B781A46BB7B02FA03F37B7363
:1013F0007B689A78FB7B1340DAB27B7B13437B7369
:101400007B7B1B017B73174A7B681B7813447A7BB9
:1014100083F800237B681B7803F01F0311497A6867
:1014200012785209D2B21046012202FA03F341F8AF
:1014300020300FE07B681B7803F01F0309497A68AE
:1014400012785209D2B2104601229A4000F12003CC
:1014500041F8232000BF1437BD4680BC704700BF51
:1014600000ED00E000E100E080B485B000AF7860FE
:1014700039600023FB600023FB727B685B68FB60C4
:10148000FB6823F0407323F48073FB603B681B7997
:101490001A023B681B681343FA681343FB607B68BE
:1014A000FA685A607B689B68FB60FA68174B1340C8
:1014B000FB603B681A693B68DB681A433B689B68C2
:1014C0001A433B685B795B001343FA681343FB6084
:1014D0007B68FA689A607B68DB6AFB60FB6823F4D0
:1014E0007003FB603B681B7D013BDAB2FB7A134360
:1014F000FB72FB7A1B05FA681343FB607B68FA6892
:10150000DA6200BF1437BD4680BC7047FDF7FFC0EC
:1015100080B483B000AF78600B46FB70FB78002B83
:1015200006D07B689B6843F001027B689A6005E007
:101530007B689B6823F001027B689A6000BF0C37D0
:10154000BD4680BC704780B485B000AF7860084667
:1015500011461A460346FB700B46BB7013467B7060
:101560000023BB600023FB60FB78092B23D97B6839
:10157000DB68BB60FB78A3F10A0213465B001344EF
:10158000072202FA03F3FB60FB68DB43BA681340EF
:10159000BB607978FB78A3F10A0213465B00134421
:1015A00001FA03F3FB60BA68FB681343BB607B6816
:1015B000BA68DA601EE07B681B69BB60FA78134684
:1015C0005B001344072202FA03F3FB60FB68DB4372
:1015D000BA681340BB607978FA7813465B0013440D
:1015E00001FA03F3FB60BA68FB681343BB607B68D6
:1015F000BA681A61BB78062B21D87B685B6BBB602D
:10160000BB785A1E13469B0013441F2202FA03F3B1
:10161000FB60FB68DB43BA681340BB60F978BB78BA
:101620005A1E13469B00134401FA03F3FB60BA6889
:10163000FB681343BB607B68BA685A6347E0BB78BA
:101640000C2B21D87B681B6BBB60BB78DA1F134661
:101650009B0013441F2202FA03F3FB60FB68DB4389
:10166000BA681340BB60F978BB78DA1F13469B0059
:10167000134401FA03F3FB60BA68FB681343BB60D1
:101680007B68BA681A6322E07B68DB6ABB60BB7860
:10169000A3F10D0213469B0013441F2202FA03F329
:1016A000FB60FB68DB43BA681340BB60F978BB782A
:1016B000A3F10D0213469B00134401FA03F3FB60F0
:1016C000BA68FB681343BB607B68BA68DA6200BF24
:1016D0001437BD4680BC704780B483B000AF7860DB
:1016E0007B689B6843F080427B689A6000BF0C3740
:1016F000BD4680BC704780B483B000AF78607B6823
:10170000DB6C9BB218460C37BD4680BC704780B47A
:1017100085B000AF78600B46FB700023FB737B68DD
:101720001A68FB781340002B02D00123FB7301E001
:101730000023FB73FB7B18461437BD4680BC704703
:1017400080B483B000AF78600B46FB70FB78DA435F
:101750007B681A6000BF0C37BD4680BC7047000034
:1017600080B485B000AF78600023FB60344BFB6031
:101770007B689B79002B4FD0314B1A687B681B68C4
:10178000DB432F4913400B602D4B5A687B681B6865
:10179000DB432B4913404B607B681B791A46FB687F
:1017A0001344FB60FB6819687B681A68FB680A438E
:1017B0001A60234B9A687B681B68DB4320491340FF
:1017C0008B601F4BDA687B681B68DB431C49134046
:1017D000CB607B685B79102B0ED1194B9A687B68C4
:1017E0001B68174913438B60154BDA687B681B68CD
:1017F00013491343CB601DE0114BFB607B685B79A1
:101800001A46FB681344FB60FB6819687B681A681A
:10181000FB680A431A600DE07B681B791A46FB6877
:101820001344FB60FB6819687B681B68DA43FB683C
:101830000A401A6000BF1437BD4680BC704700BF25
:10184000003C014080B485B000AF78600023FB739A
:10185000084B5A697B681340002B02D00123FB73AD
:1018600001E00023FB73FB7B18461437BD4680BCA8
:10187000704700BF003C014080B483B000AF786087
:10188000034A7B68536100BF0C37BD4680BC70477C
:10189000003C014080B487B000AF7860396000231D
:1018A000FB6000233B6100237B610023FB6076E04B
:1018B0000122FB6802FA03F33B613B681B683A694B
:1018C00013407B617A693B699A4265D17B681A68EB
:1018D000FB685B00032101FA03F3DB431A407B68DA
:1018E0001A607B681A683B681B791946FB685B00C5
:1018F00001FA03F31A437B681A603B681B79012BDA
:1019000003D03B681B79022B2ED17B689A68FB6859
:101910005B00032101FA03F3DB431A407B689A6002
:101920007B689A683B685B791946FB685B0001FA43
:1019300003F31A437B689A607B685A68FB689BB222
:10194000194601238B40DB431A407B685A607B6851
:101950005B683A6892791146FA6892B201FA02F22B
:1019600092B21A437B685A607B68DA68FB689BB264
:101970005B00032101FA03F3DB431A407B68DA6062
:101980007B68DA683B68DB791946FB685B0001FA23
:1019900003F31A437B68DA60FB680133FB60FB6882
:1019A0000F2B85D900BF00BF1C37BD4680BC7047D8
:1019B00080B483B000AF78607B684FF6FF721A6026
:1019C0007B6800221A717B6800225A717B680022B2
:1019D0009A717B680022DA7100BF0C37BD4680BC6B
:1019E000704780B485B000AF78600B467B800023E1
:1019F000FB737B681A697B881340002B02D001239C
:101A0000FB7301E00023FB73FB7B18461437BD46D4
:101A100080BC704780B485B000AF78600B467B8097
:101A20000023FB737B685A697B881340002B02D02C
:101A30000123FB7301E00023FB73FB7B1846143783
:101A4000BD4680BC704780B483B000AF78600B4661
:101A50007B807B687A881A8300BF0C37BD4680BCC8
:101A6000704780B483B000AF78600B467B807B68A2
:101A70007A885A8300BF0C37BD4680BC704780B45B
:101A800083B000AF78600B467B807B685A697B88A7
:101A90005A407B685A6100BF0C37BD4680BC704716
:101AA00080B485B000AF78600B467B8013467B70B6
:101AB0000023BB600023FB607A787B8803F0070378
:101AC0009B0002FA03F3BB607B88DB089BB21A46DB
:101AD0007B68083253F822207B8803F007039B00C1
:101AE0000F2101FA03F3DB437988C90889B208465C
:101AF00002EA03017B6800F1080243F822107B88A8
:101B0000DB089BB21A467B68083253F82230BA6869
:101B10001343FB607B88DB089BB21A467B68083264
:101B2000F96843F8221000BF1437BD4680BC7047E7
:101B300080B58AB000AF78603960604B1B687B620B
:101B40004FF0000300237B810023FB810423BB8132
:101B50005B4B3B617B689B887B817B8923F03F03E8
:101B60007B8107F11403184600F0D2F8FB693B6152
:101B70003B69544AA2FB03239B0CFB817A89FB89B6
:101B800013437B817B687A899A807B681B889BB230
:101B900023F001039AB27B681A8000237B813B68A3
:101BA0001B68494A934215D83B681B685B003A6939
:101BB000B2FBF3F3BB81BB89032B01D80423BB81A8
:101BC0007A89BB8913437B81FB8901339AB27B6895
:101BD0001A8440E03B68DB884BF6FF72934209D1E0
:101BE0003B681A6813465B0013443A69B2FBF3F38F
:101BF000BB810EE03B681A6813469B0013449A00B1
:101C000013443A69B2FBF3F3BB81BB8943F48043CD
:101C1000BB81BB89C3F30B03002B03D1BB8943F00A
:101C20000103BB81BA897B8913439BB26FEA4343AB
:101C30006FEA53437B81FB894FF4967202FB03F3F7
:101C4000224A82FB03129211DB17D31A9BB2013393
:101C50009AB27B681A847B687A899A837B681B882E
:101C60009BB243F001039AB27B681A807B681B88A1
:101C70007B817B8923F4816323F002037B813B68B2
:101C80009A883B685B8913439AB27B8913437B81B3
:101C90007B687A891A803B689A893B681B89134361
:101CA0009AB27B681A8100BF044B1A687B6A5A405B
:101CB00001D008F027FA2837BD4680BD9CA800084F
:101CC00000127A0083DE1B43A0860100D34D621010
:101CD00080B483B000AF78600B46FB70FB78002BBC
:101CE00008D07B681B889BB243F001039AB27B68E3
:101CF0001A8007E07B681B889BB223F001039AB22D
:101D00007B681A8000BF0C37BD4680BC704700005E
:101D100080B48BB000AF786000233B6100237B610F
:101D20000023FB600223BB610023FB6102233B62B3
:101D300002237B626F4B9B6803F00C033B613B69A2
:101D40000C2B00F2918001A252F823F0811D0008B3
:101D5000691E0008691E0008691E0008891D000828
:101D6000691E0008691E0008691E0008911D000810
:101D7000691E0008691E0008691E0008FD1D000894
:101D80007B685D4A1A6073E07B685C4A1A606FE0AA
:101D9000584B5B689B0D03F00103FB61554B5B687F
:101DA00003F03F033B62FB69002B0CD0534A3B6AB4
:101DB000B2FBF3F34F4A52689209C2F3080202FBE6
:101DC00003F3FB600BE04C4A3B6AB2FBF3F3494A76
:101DD00052689209C2F3080202FB03F3FB60454B11
:101DE0005B681B0C03F0030301335B00BB61FA6803
:101DF000BB69B2FBF3F27B681A6039E03D4B5B686C
:101E00009B0D03F00103FB613A4B5B6803F03F035A
:101E10003B62FB69002B0CD0384A3B6AB2FBF3F300
:101E2000344A52689209C2F3080202FB03F3FB60D2
:101E30000BE0314A3B6AB2FBF3F32E4A5268920937
:101E4000C2F3080202FB03F3FB602A4B5B681B0F23
:101E500003F0070301335B007B62FA687B6AB2FB25
:101E6000F3F27B681A6003E07B68234A1A6000BFC4
:101E7000204B9B6803F0F0033B613B691B093B610E
:101E80001F4A3B6913441B78DBB27B617B681A688D
:101E90007B69DA407B685A60164B9B6803F4E05319
:101EA0003B613B699B0A3B61154A3B6913441B78C4
:101EB000DBB27B617B685A687B69DA407B689A6039
:101EC0000C4B9B6803F460433B613B695B0B3B61DC
:101ED0000B4A3B6913441B78DBB27B617B685A6811
:101EE0007B69DA407B68DA6000BF2C37BD4680BC76
:101EF000704700BF003802400024F40000127A004E
:101F00000000002080B483B000AF78600B46FB7007
:101F1000FB78002B06D0094B1A6B08497B681343EA
:101F20000B6306E0054B1A6B7B68DB4303491340E8
:101F30000B6300BF0C37BD4680BC704700380240C1
:101F400080B483B000AF78600B46FB70FB78002B49
:101F500006D0094B1A6C08497B6813430B6406E0F2
:101F6000054B1A6C7B68DB43034913400B6400BFCD
:101F70000C37BD4680BC70470038024080B483B047
:101F800000AF78600B46FB70FB78002B06D0094B46
:101F90005A6C08497B6813434B6406E0054B5A6C46
:101FA0007B68DB43034913404B6400BF0C37BD46DD
:101FB00080BC70470038024080B483B000AF7860C6
:101FC0000B46FB70FB78002B06D0094B1A6A0849B8
:101FD0007B6813430B6206E0054B1A6A7B68DB43A0
:101FE000034913400B6200BF0C37BD4680BC7047ED
:101FF0000038024080B485B000AF03460A46FB714A
:102000001346BB710023FB60BB7903F003039B0005
:102010000F2202FA03F3FB60154ABB799B08DBB27F
:10202000023352F82320FB68DB431148B979890851
:10203000C9B21A408B1C40F823200D4ABB799B087B
:10204000DBB2023352F82320F979BB7903F00303A2
:102050009B0001FA03F30648B9798908C9B21A430B
:102060008B1C40F8232000BF1437BD4680BC70474E
:102070000038014080B485B000AF7860396000233B
:10208000FB817B681B88FB817B68284A934213D0C5
:102090007B68274A93420FD07B68B3F1804F0BD007
:1020A0007B68244A934207D07B68234A934203D03B
:1020B0007B68224A934208D1FB8923F07003FB819D
:1020C0003B685A88FB891343FB817B681C4A934217
:1020D0000CD07B681B4A934208D0FB8923F44073E1
:1020E000FB813B681A89FB891343FB817B68FA8972
:1020F0001A803B685A687B68DA623B681A887B689A
:102100001A857B68094A934203D07B68084A934248
:1021100004D13B689B7A9AB27B681A867B6801225D
:102120009A8200BF1437BD4680BC70470000014052
:10213000000401400004004000080040000C004082
:10214000001000400014004080B483B000AF7860FD
:102150007B684FF0FF325A607B6800221A807B68F0
:1021600000221A817B6800225A807B6800229A72C2
:1021700000BF0C37BD4680BC704780B483B000AF51
:1021800078600B46FB70FB78002B08D07B681B88BF
:102190009BB243F001039AB27B681A8007E07B6828
:1021A0001B889BB223F001039AB27B681A8000BFA0
:1021B0000C37BD4680BC704780B485B000AF7860F6
:1021C00039600023FB8100237B810023BB817B6876
:1021D0001B8C9BB223F001039AB27B681A847B6844
:1021E0001B8C7B817B689B88BB817B681B8BFB8105
:1021F000FB8923F07003FB81FB8923F00303FB8140
:102200003B681A88FB891343FB817B8923F0020317
:102210007B813B689A897B8913437B813B685A8821
:102220007B8913437B817B681E4A934203D07B6882
:102230001D4A934223D17B8923F008037B813B68AD
:10224000DA897B8913437B817B8923F004037B81BB
:102250003B689A887B8913437B81BB8923F4807315
:10226000BB81BB8923F40073BB813B681A8ABB899D
:102270001343BB813B685A8ABB891343BB817B688C
:10228000BA899A807B68FA891A833B689A687B6866
:102290005A637B687A891A8400BF1437BD4680BCB4
:1022A000704700BF000001400004014080B485B0C9
:1022B00000AF786039600023FB8100237B8100231D
:1022C000BB817B681B8C9BB223F010039AB27B68A6
:1022D0001A847B681B8C7B817B689B88BB817B68B5
:1022E0001B8BFB81FB8923F4E043FB81FB8923F4F7
:1022F0004073FB813B681B881B029AB2FB89134326
:10230000FB817B8923F020037B813B689B891B0138
:102310009AB27B8913437B813B685B881B019AB22D
:102320007B8913437B817B68224A934203D07B687D
:10233000214A93422BD17B8923F080037B813B6828
:10234000DB891B019AB27B8913437B817B8923F054
:1023500040037B813B689B881B019AB27B891343B6
:102360007B81BB8923F48063BB81BB8923F4006339
:10237000BB813B681B8A9B009AB2BB891343BB811C
:102380003B685B8A9B009AB2BB891343BB817B6825
:10239000BA899A807B68FA891A833B689A687B6855
:1023A0009A637B687A891A8400BF1437BD4680BC63
:1023B000704700BF000001400004014080B485B0B8
:1023C00000AF786039600023FB8100237B8100230C
:1023D000BB817B681B8C9BB223F480739AB27B68B1
:1023E0001A847B681B8C7B817B689B88BB817B68A4
:1023F0009B8BFB81FB8923F07003FB81FB8923F01E
:102400000303FB813B681A88FB891343FB817B89AB
:1024100023F400737B813B689B891B029AB27B8902
:1024200013437B813B685B881B029AB27B89134311
:102430007B817B68224A934203D07B68214A934286
:102440002BD17B8923F400637B813B68DB891B02F2
:102450009AB27B8913437B817B8923F480637B81E0
:102460003B689B881B029AB27B8913437B81BB89A3
:1024700023F48053BB81BB8923F40053BB813B68A9
:102480001B8A1B019AB2BB891343BB813B685B8AE1
:102490001B019AB2BB891343BB817B68BA899A80BE
:1024A0007B68FA899A833B689A687B68DA637B6801
:1024B0007A891A8400BF1437BD4680BC704700BFBC
:1024C000000001400004014080B485B000AF786096
:1024D00039600023BB810023FB8100237B817B6863
:1024E0001B8C9BB223F480539AB27B681A847B685E
:1024F0001B8CFB817B689B887B817B689B8BBB8172
:10250000BB8923F4E043BB81BB8923F44073BB81C7
:102510003B681B881B029AB2BB891343BB81FB89B2
:1025200023F40053FB813B689B891B039AB2FB8910
:102530001343FB813B685B881B039AB2FB891343FF
:10254000FB817B68114A934203D07B68104A934217
:102550000AD17B8923F480437B813B681B8A9B01E2
:102560009AB27B8913437B817B687A899A807B68E6
:10257000BA899A833B689A687B681A647B68FA898F
:102580001A8400BF1437BD4680BC7047000001406C
:102590000004014080B483B000AF78607B68002203
:1025A0001A807B6800225A807B6800229A807B68B0
:1025B00000229A607B6800229A817B680022DA817F
:1025C0007B6800221A827B6800225A8200BF0C3787
:1025D000BD4680BC704780B483B000AF78600B46C6
:1025E000FB70FB78002B0CD07B68B3F844309BB2B7
:1025F0006FEA43436FEA53439AB27B68A3F84420DF
:1026000009E07B68B3F844309BB2C3F30E039AB27F
:102610007B68A3F8442000BF0C37BD4680BC7047E0
:1026200080B58CB000AF786039605D4B1B68FB6291
:102630004FF000030023FB6000233B6100237B611C
:102640000023BB617B681B8A9BB2FB60FB6823F4A1
:102650004053FB603B68DB881A46FB681343FB6012
:10266000FB689AB27B681A827B689B899BB2FB608D
:10267000FB6823F4B05323F00C03FB603B689A889B
:102680003B681B8913439AB23B685B8913439BB237
:102690001A46FB681343FB60FB689AB27B689A8119
:1026A0007B689B8A9BB2FB60FB6823F44073FB60F2
:1026B0003B689B891A46FB681343FB60FB689AB230
:1026C0007B689A8207F11C031846FFF721FB7B68A1
:1026D000344A934203D07B68334A934202D1BB6AA7
:1026E0003B6101E07B6A3B617B689B899BB21BB2CB
:1026F000002B0CDA3A6913469B0013449A001A44E3
:102700003B681B685B00B2FBF3F37B610BE03A694B
:1027100013469B0013449A001A443B681B689B00B5
:10272000B2FBF3F37B617B69204AA2FB03235B09C5
:102730001B01FB60FB681B09642202FB03F37A693F
:10274000D31ABB617B689B899BB21BB2002B0CDA4E
:10275000BB69DB003233154AA2FB03235B0903F09C
:102760000703FA681343FB600BE0BB691B013233BC
:102770000E4AA2FB03235B0903F00F03FA6813431D
:10278000FB60FB689AB27B681A8100BF044B1A6831
:10279000FB6A5A4001D007F0B5FC3037BD4680BD1A
:1027A000A0A8000800100140001401401F85EB5153
:1027B00080B483B000AF78600B46FB70FB78002BD1
:1027C00008D07B689B899BB243F400539AB27B6824
:1027D0009A8107E07B689B899BB223F400539AB2ED
:1027E0007B689A8100BF0C37BD4680BC704780B4BF
:1027F00083B000AF78600B467B807B88C3F308030F
:102800009AB27B689A8000BF0C37BD4680BC704787
:1028100080B483B000AF78607B689B889BB2C3F3C1
:1028200008039BB218460C37BD4680BC704780B485
:1028300087B000AF78600B467B8013467B70002327
:10284000FB6000233B6100237B610023BB607B684E
:10285000BB607B88DBB25B09DBB2FB607B8803F08B
:102860001F033B6101223B6902FA03F37B61FB68B2
:10287000012B03D1BB680C33BB6009E0FB68022B62
:1028800003D1BB681033BB6002E0BB681433BB608C
:102890007B78002B06D0BB681968BB687A690A434D
:1028A0001A6006E0BB6819687B69DA43BB680A40B6
:1028B0001A6000BF1C37BD4680BC704780B487B02B
:1028C00000AF78600B467B8000233B610023FB60F8
:1028D00000237B610023FB727B88DBB25B09DBB2E8
:1028E0007B617B8803F01F03FB600122FB6802FA17
:1028F00003F3FB607B69012B07D17B689B899BB24B
:102900001A46FB681340FB6011E07B69022B07D17C
:102910007B681B8A9BB21A46FB681340FB6006E08B
:102920007B689B8A9BB21A46FB681340FB607B88DE
:102930001B0A9BB23B6101223B6902FA03F33B6134
:102940007B681B889BB21A463B6913403B61FB685E
:10295000002B05D03B69002B02D00123FB7201E064
:102960000023FB72FB7A18461C37BD4680BC7047BB
:1029700080B485B000AFF860C7E90023F968D7E9F3
:102980000023C1E90023FB6818461437BD4680BC0C
:10299000704780B584B000AFF860C7E90023D7E97D
:1029A0000023F868FFF7E4FFF8681037BD4680BDE4
:1029B000B0B586B000AFF860C7E900231D4B1B68B7
:1029C0007B614FF00003D7E9000102460B464FF050
:1029D00000044FF000055D0145EAD265540122462E
:1029E0002B46121A63EB01034FF000044FF0000571
:1029F0009D0045EA9275940022462B46121841EB41
:102A000003034FF000004FF00001D90041EA52717A
:102A1000D00002460B46F9680846FFF7BAFF054B9F
:102A20001A687B695A4001D007F06CFBF8681837C8
:102A3000BD46B0BDA4A8000880B582B000AF7860E4
:102A40003960064A3B6813604FF4E060FEF798FC7B
:102A50007B6818460837BD4680BD00BFA400002033
:102A600080B582B000AF78607B6879681846FFF760
:102A7000E3FF7B681A1D7B6808331946104604F093
:102A8000B9F87B6808334FF416520021184602F05B
:102A900081FF7B681033184603F030FB7B6803F539
:102AA0008B630121184601F0E7FD7B6803F25A436E
:102AB0008021184601F0F8FD7B680CE07B6810333C
:102AC000184603F0A3FCFFE77B680833184602F0C2
:102AD0007DFF04F03EFE18460837BD4680BD00006D
:102AE00080B5CEB000AF3B1D1860374B1B68C7F8F0
:102AF00034314FF0000304F0A1F8024607F10C0353
:102B00001A6007F10C031B68002B06D007F10C03B9
:102B10002E4A2F49186804F07BF83B1D1B6803F20E
:102B20005A43184601F000FE07F110014FF064020D
:102B30004FF000030846FFF73BFF07F11801D7E904
:102B40000423084604F044FB07F11803184604F078
:102B500069FB204B204A9A601E4B204A5A601D4B4D
:102B60004FF07E521A601B4B1D4ADA60194B1D4A0A
:102B70005A61184B4FF000021A6107F10903D02285
:102B80001A7007F10A033B221A7007F10B033C226B
:102B90001A703B1D1B681033184603F0E3FD07F164
:102BA0001803184604F0AAFB0346002BF1D00E4B85
:102BB0001B6801330C4A13600B4B1B68642BE8D96C
:102BC000094B00221A60E4E7D0A80008A8A8000872
:102BD0008CAB0008A80000200AD7A33B00004040AF
:102BE000CDCCCC3D0000C842C000002080B400AF76
:102BF000024B1B681846BD4680BC7047A4000020ED
:102C000080B485B000AFF860B9607A60FB68BA68DC
:102C10001A60FB687A685A60FB6800229A60FB6859
:102C20000022DA60FB6818461437BD4680BC704746
:102C300080B483B000AF78600B46FB707B68DA68C5
:102C40007B689B68013B9A420CBF01230023DBB2E7
:102C5000002B01D0002319E07B681A687B68DB68D1
:102C6000581C7968C8601344FA78D2B21A707B682D
:102C7000DA687B685B689A420CBF01230023DBB2F1
:102C8000002B02D07B680022DA60012318460C3743
:102C9000BD4680BC7047000080B586B000AF78604C
:102CA000224B1B687B614FF00003786800F05DF8F1
:102CB0000346002B07D007F10C03184600F067F815
:102CC000BB893B821FE07B681A687B689B68581C45
:102CD0007968886013441B78DAB207F10C03114657
:102CE000184600F061F87B689A687B685B689A42D6
:102CF0000CBF01230023DBB2002B02D07B68002233
:102D00009A60BB893B8200233A7C62F307037A7C9A
:102D100062F30F23054A11687A69514001D007F028
:102D2000F1F918461837BD4680BD00BFD4A8000889
:102D300080B483B000AF78607B68DA687B689B689A
:102D40009A4205D37B68DA687B689B68D31A07E0F0
:102D50007B68DA687B685B681A447B689B68D31A77
:102D600018460C37BD4680BC704780B483B000AFB6
:102D700078607B689A687B68DB689A420CBF0123A5
:102D80000023DBB218460C37BD4680BC704780B4C8
:102D900083B000AF78607B6800221A707B681846A9
:102DA0000C37BD4680BC704780B483B000AF7860FC
:102DB0000B46FB707B6801221A70FB78DAB27B68E5
:102DC0005A707B6818460C37BD4680BC70470000BF
:102DD00090B587B000AF7860324B1B687B614FF0D5
:102DE00000037B680021184600F0A0F97B680133DE
:102DF0000121184600F09AF97B6802330221184637
:102E000000F094F97B6803330321184600F08EF933
:102E10007B6804330421184600F088F97B68083386
:102E20000021184602F012F87B6830330121184661
:102E300002F00CF87B6803F1580407F108014FF029
:102E40000A024FF000030846FFF7B2FDD7E902235C
:102E5000204604F0BDF97B685833184604F0E2F9C7
:102E60007B6830336FF06301184602F08FF87B689F
:102E70000C4A11687A6951400FD00CE07B683033FE
:102E8000184602F039F8FFE77B680833184602F06D
:102E900033F804F05EFC07F035F918461C37BD46E0
:102EA00090BD00BFE0A8000880B586B000AF786094
:102EB0000023FB6000233B613B69042B23DC0023E0
:102EC0007B617B69632B0EDC7A683B69134418468F
:102ED00000F0E0FA03461A46FB681344FB607B6986
:102EE00001337B61EDE7FB68094AA2FB03235B0921
:102EF00099B2084A3B6922F813100023FB603B6932
:102F000001333B61D8E700BF1837BD4680BD00BF25
:102F10001F85EB51C400002080B483B000AF0F4B7D
:102F20001B887B8001237B607B68032B0FDC0B4AB3
:102F30007B6832F813307A889A4204D2074A7B6859
:102F400032F813307B807B6801337B60ECE77B8851
:102F500018460C37BD4680BC704700BFC400002037
:102F600090B585B000AF78600323FB727B6858335F
:102F7000184604F0C3F90346002B00F08F807868F0
:102F8000FFF792FF474B1B8903F22B14FFF7C4FF97
:102F900003469C42ACBF01230023DBB2002B7DD152
:102FA000404B1B881A463F4BDB88134403F1130246
:102FB0003C4B5B8819463B4B9B880B449A4203DB96
:102FC0004FF6FF73FB8114E0364B1B881A46354BD6
:102FD000DB881344A3F11302324B5B881946314B53
:102FE0009B880B449A4202DC0123FB8101E0002311
:102FF000FB812C4B1B881A462A4B5B88134403F138
:103000001302284BDB881946264B9B880B449A42B7
:1030100002DB0123BB8115E0224B1B881A46214BA2
:103020005B881344A3F113021E4BDB8819461D4B2A
:103030009B880B449A4203DC4FF6FF73BB8101E08F
:103040000023BB817B683033184601F0DBFF034669
:103050001A4640F2DB539A4294BF01230023DBB2AD
:10306000002B03D0BB895B429BB2BB817B680833DA
:10307000BA89114649000A4492B212B21146184662
:1030800001F084FF7B683033FA89114649000A4415
:1030900092B212B21146184601F078FF00BF143701
:1030A000BD4690BDC400002080B584B000AFF8607C
:1030B000384680E80E00FB681B683A6811461846DF
:1030C000FDF7BAFC03461A46FB681A60FB685B68AA
:1030D0007A6811461846FDF7AFFC03461A46FB68AE
:1030E0005A60FB689B68BA6811461846FDF7A4FC55
:1030F00003461A46FB689A60FB689B680A491846B3
:10310000FDF75EFF0346002B00D109E0FB689B68DA
:1031100005491846FDF78EFC03461A46FB689A607F
:1031200000BF1037BD4680BD0000B44380B582B0FB
:1031300000AF78600B46FB707B68FA781A7078688D
:1031400000F00CF8786800F047F8786800F05EF955
:103150007B6818460837BD4680BD000080B586B044
:1031600000AF78601A4B1B687B614FF0000307F1DA
:103170000C0300221A605A6003233B7402237B7401
:103180007B681B781946134A0B465B000B449B0077
:10319000134408331B88FB607B681B7819460D4A73
:1031A0000B465B000B449B0013441B6807F10C02A9
:1031B00011461846FEF76EFB00BF054B1A687B6987
:1031C0005A4001D006F09EFF1837BD4680BD00BFB3
:1031D000E4A8000898AB000880B584B000AF786020
:1031E0007B681B781946794A0B465B000B449B00B1
:1031F00013441B68764A934202D10123BB60A1E0CD
:103200007B681B781946714A0B465B000B449B0098
:1032100013441B686F4A934202D10223BB6091E0C2
:103220007B681B781946694A0B465B000B449B0080
:1032300013441B68684A934202D10423BB6081E0B7
:103240007B681B781946614A0B465B000B449B0068
:1032500013441B68614A934202D10823BB6071E0AA
:103260007B681B781946594A0B465B000B449B0050
:1032700013441B685A4A934202D11023BB6061E099
:103280007B681B781946514A0B465B000B449B0038
:1032900013441B68534A934202D12023BB6051E080
:1032A0007B681B781946494A0B465B000B449B0020
:1032B00013441B684C4A934202D14023BB6041E057
:1032C0007B681B781946414A0B465B000B449B0008
:1032D00013441B68454A934202D18023BB6031E00E
:1032E0007B681B781946394A0B465B000B449B00F0
:1032F00013441B683E4A934203D14FF48073BB6072
:1033000020E07B681B781946304A0B465B000B4473
:103310009B0013441B68374A934203D14FF4007358
:10332000BB600FE07B681B781946284A0B465B00A0
:103330000B449B0013441B682F4A934202D14FF465
:103340008063BB600121B868FEF7DCFD7B681B78F9
:1033500019461E4A0B465B000B449B001344043382
:103360001B68264A934206D14FF48073FB602448C1
:1033700003F0FCFF22E07B681B781946134A0B46DA
:103380005B000B449B00134404331B681D4A9342AB
:1033900003D14FF40073FB6010E07B681B78194683
:1033A0000A4A0B465B000B449B00134404331B6822
:1033B000154A934202D14FF48063FB600121F86803
:1033C000FEF7DCFD00BF1037BD4680BD98AB00089E
:1033D000000002400004024000080240000C0240CD
:1033E000001002400014024000180240001C02407D
:1033F000002002400024024000280240002001403A
:10340000E8A800080021014000220140B0B58AB0C0
:1034100000AF78601C4B1B687B624FF000031B4BB6
:1034200007F10C041D460FCD0FC495E8030084E896
:1034300003007B681B781946154A0B465B000B445A
:103440009B00134404331B6807F10C021146184615
:10345000FEF70AF87B681B7819460D4A0B465B009D
:103460000B449B00134404331B6801211846FEF7EC
:103470004FF800BF044B1A687B6A5A4001D006F02F
:1034800041FE2837BD46B0BD10A90008F8A80008C5
:1034900098AB000880B582B000AF78607B681B787D
:1034A00019462F4A0B465B000B449B001344043320
:1034B00018687B681B781946294A0B465B000B4449
:1034C0009B0013440A33197807230122FEF73BF8C7
:1034D0007B681B781946224A0B465B000B449B0015
:1034E000134404331B681846FEF7F6F87B681B7814
:1034F00019461B4A0B465B000B449B0013440433E4
:103500001B6802211846FEF702F90346002B0CBF88
:1035100001230023DBB2002B00D0E7E77B681B7898
:1035200019460F4A0B465B000B449B0013440433BF
:103530001B6802211846FEF703F97B681B781946C1
:10354000074A0B465B000B449B00134404331B6883
:103550001846FEF7D0F8034618460837BD4680BD2A
:1035600098AB000880B586B000AF7860404B1B6810
:103570007B614FF000037B685B683E4A934202D157
:103580000123BB6051E07B685B683B4A934202D1F8
:103590000223BB6049E07B685B68384A934202D1F2
:1035A0000423BB6041E07B685B68354A934202D1EB
:1035B0000823BB6039E07B685B68324A934202D1E2
:1035C0001023BB6031E07B685B682F4A934202D1D5
:1035D0002023BB6029E07B685B682C4A934202D1C0
:1035E0004023BB6021E07B685B68294A934202D19B
:1035F0008023BB6019E07B685B68264A934203D155
:103600004FF48073BB6010E07B685B68224A934292
:1036100003D14FF40073BB6007E07B685B681F4A0F
:10362000934202D14FF48063BB600121B868FEF77A
:1036300069FC07F10C0300221A605A6001233B74F5
:1036400001237B747B681B88FB607B685B6807F1E8
:103650000C0211461846FEF71DF900BF044B1A680C
:103660007B695A4001D006F04DFD1837BD4680BD3C
:1036700014A90008000002400004024000080240B3
:10368000000C0240001002400014024000180240EA
:10369000001C02400020024000240240002802409A
:1036A00080B584B000AFF860B9601346FB80FB685A
:1036B000FA881A80FB68BA685A60F868FFF752FF08
:1036C000FB6818461037BD4680BD80B483B000AF9C
:1036D00078607B6818460C37BD4680BC704780B563
:1036E00082B000AF78607B685A687B681B88194697
:1036F0001046FEF7A8F900BF0837BD4680BD80B56B
:1037000082B000AF78607B685A687B681B88194676
:103710001046FEF7A6F900BF0837BD4680BD80B54C
:1037200082B000AF78600B46FB70FB78002B03D0B3
:103730007868FFF7D4FF02E07868FFF7E0FF00BF8A
:103740000837BD4680BD80B582B000AF78607B6829
:103750005A687B681B8819461046FEF790F900BF2F
:103760000837BD4680BD80B582B000AF78607B6809
:103770005A687B681B8819461046FEF74BF90346CA
:10378000002B14BF01230023DBB218460837BD46C7
:1037900080BD80B483B000AF78607B684FF00002DA
:1037A0001A607B684FF000025A607B6818460C373D
:1037B000BD4680BC704780B582B000AF78607B6842
:1037C00010331846FFF7E5FF7B6818460837BD46FB
:1037D00080BD000090B587B000AF78600B46FB70ED
:1037E0001C4B1B687B614FF000037B68FA781A70F2
:1037F0007B6803F1080407F108014FF064024FF001
:1038000000030846FFF7D4F8D7E90223204603F067
:10381000DFFC786800F022F8786800F08FF97868AB
:1038200000F0BAF97B680833184603F0FBFC7868AF
:1038300000F088FA084803F099FD7B68054A116892
:103840007A69514001D006F05DFC18461C37BD4630
:1038500090BD00BF30A900081CA9000880B588B041
:1038600000AF7860854B1B68FB614FF000037B68FD
:103870001B78834A1B0113441B68824A934202D17E
:103880000123FB6079E07B681B787D4A1B011344B0
:103890001B687D4A934202D10223FB606DE07B6886
:1038A0001B78774A1B0113441B68784A934202D164
:1038B0000423FB6061E07B681B78714A1B011344A1
:1038C0001B68734A934202D10823FB6055E07B6872
:1038D0001B786B4A1B0113441B686E4A934202D14A
:1038E0001023FB6049E07B681B78654A1B01134489
:1038F0001B68694A934202D12023FB603DE07B684C
:103900001B785F4A1B0113441B68644A934202D12F
:103910004023FB6031E07B681B78594A1B0113444C
:103920001B685F4A934202D18023FB6025E07B68DD
:103930001B78534A1B0113441B685A4A934203D114
:103940004FF48073FB6018E07B681B784C4A1B01C6
:1039500013441B68544A934203D14FF40073FB6035
:103960000BE07B681B78464A1B0113441B684F4AD7
:10397000934202D14FF48063FB600121F868FEF7A7
:10398000C1FA01214FF48040FEF7F8FA7B681B78FA
:103990003B4A1B0113441B683A4A934202D100235D
:1039A0003B6190E07B681B78354A1B0113441B6820
:1039B000354A934202D101233B6184E07B681B7846
:1039C0002F4A1B0113441B68304A934202D1022341
:1039D0003B6178E07B681B78294A1B0113441B6814
:1039E0002B4A934202D103233B616CE07B681B7836
:1039F000234A1B0113441B68264A934202D1042325
:103A00003B6160E07B681B781D4A1B0113441B6807
:103A1000214A934202D105233B6154E07B681B7825
:103A2000174A1B0113441B681C4A934202D1062308
:103A30003B6148E07B681B78114A1B0113441B68FB
:103A4000174A934202D107233B613CE07B681B7815
:103A50000B4A1B0113441B68124A934202D10823EC
:103A60003B6130E07B681B78054A1B0113441B68EF
:103A70000D4A93421CD109233B6124E034A900087C
:103A800054AC00080000024000040240000802405C
:103A9000000C0240001002400014024000180240D6
:103AA000001C024000200240002402400028024086
:103AB0007B681B781E4A1B0113441B681D4A9342F6
:103AC00001D10A233B613B69DAB27B681B78184954
:103AD0001B010B4406331B7819461046FEF78AFA81
:103AE00007F1140300221A605A6003237B76022335
:103AF000FB767B681B780E4A1B01134404331B883A
:103B00007B617B681B780A4A1B0113441B6807F121
:103B1000140211461846FDF7BDFE00BF064B1A6899
:103B2000FB695A4001D006F0EDFA2037BD4680BD52
:103B300054AC00080028024034A9000880B586B0C3
:103B400000AF7860124B1B687B614FF0000307F1F8
:103B50000C0300221A605A6010237B740123BB748B
:103B60007B681B780B4A1B01134408331B68FB60FE
:103B700007F10C031846FDF7F3FD00BF044B1A686C
:103B80007B695A4001D006F0BDFA1837BD4680BDAA
:103B900038A9000854AC000880B584B000AF786044
:103BA000114B1B68FB604FF000030023BB60022336
:103BB0007B720123FB727B681B780C4A1B01134448
:103BC0000C331B783B7207F108031846FDF7EAFB3C
:103BD00000BF054B1A68FB685A4001D006F092FA04
:103BE0001037BD4680BD00BF3CA9000854AC00089A
:103BF00080B483B000AF78607B681B781946064AB2
:103C00000B465B000B44DB00134404331B6818466F
:103C10000C37BD4680BC7047D000002080B483B014
:103C200000AF78607B681B781946064A0B465B003C
:103C30000B44DB00134408331B6818460C37BD46A1
:103C400080BC7047D000002080B582B000AF7860A3
:103C50007868FFF7E3FF03461846FCF7EBFB4FF0ED
:103C60000002114BFCF78AFD02460B464FF00000A4
:103C70000E49FCF783FD02460B461046194608A381
:103C8000D3E90023FCF750FC02460B4610461946C8
:103C9000FCF75CFE0346DBB218460837BD4680BD24
:103CA0009A9999999999F13F00408F4000001840E6
:103CB000B0B584B000AF78607B680833184603F075
:103CC0001DFB0346002B37D001F0F4FC02460B46E7
:103CD000C7E902237B681B781946194A0B465B002B
:103CE0000B44DB0013440C331B681A464FF00003EF
:103CF000D7E90201841A61EB030540F2BB224FF0C1
:103D00000003A242AB4117DABA687B681B781846F9
:103D10000B4903465B000344DB000B440C331B6878
:103D2000796809780846D21A054903465B000344BE
:103D3000DB000B4408331A6000BF1037BD46B0BD2E
:103D4000D000002080B483B000AF78607B681B781F
:103D50001946074A0B465B000B44DB00134404334F
:103D600000221A6000BF0C37BD4680BC704700BF00
:103D7000D000002080B582B000AF78607868FFF78F
:103D800037FF03461846FCF70BFF03460649184663
:103D9000FCF75AFF03461846FDF71CF90346184680
:103DA0000837BD4680BD00BF52B81641B0B58AB0D5
:103DB00000AF78600B46FB704FF07A53FB603C4BD2
:103DC0003B61FA783B4913465B001344DB000B442C
:103DD00010331B687B61FA78364913465B00134445
:103DE000DB000B4414331B681946F868FCF724FE0B
:103DF0000346BB61B869FCF73FFB04460D463969D1
:103E0000B869FCF719FE03461846FCF735FB024675
:103E10000B464FF000002849FCF7B0FC02460B4669
:103E200020462946FCF780FB02460B461046194601
:103E3000FCF7ACFD0346FB617868FCF7B1FE034676
:103E400079691846FCF7F6FD0346F9691846FCF750
:103E5000FBFE034619467869FCF7EEFD03463B621C
:103E6000F9694FF07E50FCF7E5FD03461946B86945
:103E7000FCF7EAFE03467B62FA780E4913465B00C4
:103E80001344DB000B4414337A6A1A60FA78094948
:103E900013465B001344DB000B4410333A6A1A608C
:103EA000386AFDF797F8034618462837BD46B0BD77
:103EB0000000E040D00000200000F03FB0B586B028
:103EC00000AF0346FB7101F0F5FB02460B46C7E964
:103ED0000423FB79524A1B0113441A68FB795049A9
:103EE0001B010B4404331B8819461046FDF779FD6E
:103EF0000346002B0CBF01230023DBB2FB73FA79CE
:103F0000484913465B001344DB000B440C331B6829
:103F10001A464FF00003D7E90401841A61EB030548
:103F20003D2C75F100036DDBFB7B012B6AD1FA7927
:103F30003C4913465B001344DB000B441B78FA7BBF
:103F40009A425FD0FB79384A52F83320FB793649E0
:103F5000DB000B449B8819461046FDF75BFD0346CA
:103F6000012B0CBF01230023DBB2002B12D0FA7906
:103F70002C4913465B001344DB000B4404331B68DD
:103F8000591C284813465B001344DB0003440433E8
:103F9000196011E0FA79234913465B001344DB00F2
:103FA0000B4404331B68591E1E4813465B00134420
:103FB000DB000344043319603969FA791948134660
:103FC0005B001344DB0003440C331B68CB1A1A4616
:103FD000FB7919461046FFF7E9FE0346FA791846C1
:103FE000104913465B001344DB000B440833186090
:103FF000FA7939690B4813465B001344DB0003442C
:104000000C331960FA79074913465B001344DB004F
:104010000B44FA7B1A7000BF1837BD46B0BD00BF15
:1040200054AC0008D00000201CAC000880B500AFE4
:104030000120FDF707FC0346002B14BF01230023DA
:10404000DBB2002B05D00020FFF738FF0120FDF781
:1040500013FC00BF80BD80B500AF0220FDF7F2FB6E
:104060000346002B14BF01230023DBB2002B05D035
:104070000120FFF723FF0220FDF7FEFB00BF80BDFC
:1040800080B500AF0420FDF7DDFB0346002B14BF15
:1040900001230023DBB2002B05D00220FFF70EFF27
:1040A0000420FDF7E9FB00BF80BD80B500AF08200C
:1040B000FDF7C8FB0346002B14BF01230023DBB22E
:1040C000002B05D00320FFF7F9FE0820FDF7D4FBF5
:1040D00000BF80BD80B500AF1020FDF7B3FB0346E5
:1040E000002B14BF01230023DBB2002B05D00420DA
:1040F000FFF7E4FE1020FDF7BFFB00BF80BD80B5D9
:1041000000AF2020FDF79EFB0346002B14BF0123C8
:104110000023DBB2002B05D00520FFF7CFFE2020C7
:10412000FDF7AAFB00BF80BDB0B582B000AF7860DC
:1041300039607B68012B0FD13B684FF6FF729342C9
:104140000AD1074B05241D46002C05DB2846FFF746
:1041500032FB1835013CF7E700BF0837BD46B0BD5C
:10416000D000002080B500AF4FF6FF710120FFF7AF
:10417000DBFF80BD80B483B000AF0346FB71FB79E9
:1041800018460C37BD4680BC704780B483B000AF82
:104190000346FB71FB79002B01D0002300E00123D3
:1041A00018460C37BD4680BC704780B483B000AF62
:1041B0000346FB71FB79002B01D0002300E00123B3
:1041C00018460C37BD4680BC7047000090B587B0DC
:1041D00000AF78600B46FB702C4B1B687B614FF087
:1041E00000037B68FA781A707B6801334FF44871DA
:1041F000184600F055FD7B68181DFB78244A52F8DC
:104200003310FB78224ADB0013449B881A46FFF7E1
:1042100047FA7B6803F1100407F108014FF00A0226
:104220004FF000030846FEF7C3FBD7E90223204600
:1042300002F0CEFF7B685C1CFB781846FFF79AFF04
:10424000034600221946204600F06CFD7B681033BF
:10425000184602F0E7FF7B680C4A11687A69514002
:104260000FD00CE07B6804331846FFF72EFAFFE707
:104270007B680133184600F03DFD03F06AFA05F053
:1042800041FF18461C37BD4690BD00BF44A9000839
:10429000B4AC000880B483B000AF78600B46FB700C
:1042A0007B681B781946044AFB78535400BF0C37CF
:1042B000BD4680BC704700BF6401002090B583B04C
:1042C00000AF78600B46FB707B685C1C7B681B78DA
:1042D0001846FFF74FFF03461946FB789BB21A4674
:1042E000204600F01FFD00BF0C37BD4690BD00000A
:1042F00090B583B000AF78600B46FB707B681B788D
:104300005B00DBB20133DCB2FB781846FFF74DFFF0
:1043100003461A462146034800F086F800BF0C37D2
:10432000BD4690BD6001002090B583B000AF7860BD
:104330000B46FB707B681C1DFB781846FFF735FFAA
:10434000034619462046FFF7EAF900BF0C37BD4681
:1043500090BD80B582B000AF78607B6804331846AA
:10436000FFF701FA03461846FFF70FFF034618460A
:104370000837BD4680BD80B483B000AF78600B467F
:104380007B807B687A881A807B6818460C37BD462C
:1043900080BC704780B483B000AF78600B46FB7080
:1043A0007B681B881AB2FB78012101FA03F31BB268
:1043B00013431BB29AB27B681A8000BF0C37BD460C
:1043C00080BC704780B483B000AF78600B46FB7050
:1043D0007B681B881AB2FB78012101FA03F31BB238
:1043E000DB431BB213401BB29AB27B681A8000BF3A
:1043F0000C37BD4680BC704780B483B000AF786096
:104400000B46FB707B681B881A46FB7842FA03F365
:1044100003F00103002B14BF01230023DBB2184675
:104420000C37BD4680BC704780B582B000AF786065
:104430000B46FB701346BB70BB78002B05D0FB7896
:1044400019467868FFF7A6FF04E0FB7819467868FC
:10445000FFF7B8FF00BF0837BD4680BD80B582B00A
:1044600000AF786039607B68012B08D13B684FF65C
:10447000FF72934203D100210348FFF77CFF00BF86
:104480000837BD4680BD00BF6001002080B500AF89
:104490004FF6FF710120FFF7E1FF80BD80B582B0CC
:1044A00000AF78607B681B78184A5B0113440C33BB
:1044B0001B6801211846FDF743FD7B681B78134AF2
:1044C0005B01134408331B6801211846FDF71AFDF0
:1044D0007B681B780D4A5B0113440C331B68012178
:1044E0001846FDF769FD7B681B78084A5B01134499
:1044F0000C331B6800211846FDF75EFD044802F0EE
:1045000035FF00BF0837BD4680BD00BFECAC0008DA
:1045100048A9000880B586B000AF7860354B1B68AD
:104520007B614FF0000307F10C0300221A605A6010
:1045300002233B7403237B740123BB740123FB74AC
:104540007B681B782C4A5B01134410331A687B6824
:104550001B7829495B010B4414331B681343FB6030
:104560007B681B78244A5B0113441B6807F10C022B
:1045700011461846FDF78EF97B681B781E4A5B01D1
:10458000134418687B681B781B4A5B01134418337B
:104590001B7899B27B681B78174A5B0113441A3366
:1045A0001B781A46FDF77CFA7B681B78124A5B0180
:1045B000134418687B681B780F4A5B011344193356
:1045C0001B7899B27B681B780B4A5B0113441A3342
:1045D0001B781A46FDF764FA7868FFF75FFF00BFA3
:1045E000044B1A687B695A4001D005F08BFD1837DF
:1045F000BD4680BD58A90008ECAC000890B589B054
:1046000000AF7860184B1B68FB614FF00003174B3D
:1046100007F10C040FCB84E80F007B681B78144A69
:104620005B01134404331B6807F10C021146184662
:10463000FDF77EFA7B681B780D4A5B011344043357
:104640001B6801211846FDF743FB0A4802F08EFE65
:1046500000BF054B1A68FB695A4001D005F052FDB6
:104660002437BD4690BD00BF78A9000868A900089E
:10467000ECAC00085CA9000880B582B000AF78609F
:104680000B46FB707B68FA781A707868FFF706FFB4
:104690007868FFF73FFF7868FFF7B0FF7B68184640
:1046A0000837BD4680BD000080B586B000AF786099
:1046B0000B467B80144B1B687B614FF000037B68CB
:1046C0007A881A8001210220FDF71CFC07F10C03F7
:1046D00000221A605A6001233B7401237B747B889B
:1046E000FB6007F10C0319460848FDF7D3F87B6817
:1046F000054A11687A69514001D005F003FD18465A
:104700001837BD4680BD00BFE0AA00080004024083
:1047100080B582B000AF7860786800F015F87B68EB
:1047200018460837BD4680BD80B582B000AF7860BE
:104730007B681B8819460348FDF785F900BF0837D9
:10474000BD4680BD0004024080B582B000AF7860F5
:104750007B681B8819460348FDF783F900BF0837BB
:10476000BD4680BD0004024080B483B000AF7860D5
:104770007B681B685A1C7B681A6000BF0C37BD46FB
:1047800080BC704780B483B000AF78607B681B68E2
:104790005A1E7B681A6000BF0C37BD4680BC70474C
:1047A00080B483B000AF78607B681B68002B14BFB7
:1047B00001230023DBB218460C37BD4680BC70478E
:1047C00080B483B000AF78607B681B68002B0CBF9F
:1047D00001230023DBB218460C37BD4680BC70476E
:1047E00080B582B000AF786001210120FDF7A8FB01
:1047F00001210420FDF7A4FB01210220FDF7BEFBEF
:1048000001210120FDF77EFB01210820FDF77AFB45
:1048100001210420FDF776FB00BF0837BD4680BDAF
:1048200080B586B000AF7860594B1B687B614FF054
:10483000000307F10C031846FDF7BAF80122022322
:1048400013430422134308221343FB6002233B74E7
:1048500002237B740023BB740023FB744D4A07F1D1
:104860000C0319461046FDF715F84FF480524FF42B
:10487000005313434FF4804213434FF40042134359
:10488000FB6002233B7402237B740023BB74002370
:10489000FB74414A07F10C0319461046FCF7FAFF76
:1048A0004022802313434FF4807213434FF400726D
:1048B0001343FB6002233B7402237B740023BB740D
:1048C0000023FB74354A07F10C0319461046FCF728
:1048D000E1FF324806239BB203221946FDF7E0F8B8
:1048E0002E4807239BB203221946FDF7D9F82B481F
:1048F00008239BB203221946FDF7D2F82748092363
:104900009BB203221946FDF7CBF823480C239BB238
:1049100002221946FDF7C4F81F480D239BB202225C
:104920001946FDF7BDF81C480E239BB2022219461A
:10493000FDF7B6F818480E239BB202221946FDF780
:10494000AFF8144800239BB201221946FDF7A8F8DE
:10495000104801239BB201221946FDF7A1F80D482A
:1049600002239BB201221946FDF79AF80948032356
:104970009BB201221946FDF793F800BF044B1A6859
:104980007B695A4001D005F0BDFB1837BD4680BD9C
:10499000E4AA000800000240000C024000080240A7
:1049A00080B58EB000AF78603960484B1B687B6380
:1049B0004FF0000307F10C031846FDF7EBFD07F17C
:1049C00020031846FDF7E6FD7023BB810123FB8120
:1049D0003F4B1A683B68B2FBF3F37B6102233B83D6
:1049E0004FF48073BB8370233B8401237B84384B5B
:1049F0001B68384AA2FB03231B09BB620223BB8549
:104A00004FF480733B86344A07F10C031946104675
:104A1000FDF7D2FB304A07F10C0319461046FDF7AB
:104A200045FC2D4A07F10C0319461046FDF7C6FC5C
:104A3000294A07F10C0319461046FDF745FD274AA0
:104A400007F10C0319461046FDF7B6FB234A07F1A0
:104A50000C0319461046FDF729FC204A07F10C0308
:104A600019461046FDF7AAFC1C4A07F10C0319462B
:104A70001046FDF729FD4FF0804207F1200319464B
:104A80001046FDF799FB4FF0804207F120031946CD
:104A90001046FDF70BFC4FF0804207F1200319464A
:104AA0001046FDF78BFC4FF0804207F120031946BA
:104AB0001046FDF709FD00BF044B1A687B6B5A4096
:104AC00001D005F01FFB3837BD4680BDE8AA0008BD
:104AD000140000201F85EB51000401400008004035
:104AE00080B594B000AF786039603B4B1B68FB64C5
:104AF0004FF0000307F128031846FDF725FB07F1E7
:104B000034031846FDF720FB07F140031846FDF774
:104B10001BFB324B1B683B613B68642202FB03F3C7
:104B20007B613A697B69B2FBF3F3013BBB616323B1
:104B3000BB816323FB62BB699BB23B8500233B8641
:104B400000237B856323BB63BB695B089BB2BB8689
:104B50000023BB870023FB8644F62063FB61204BC8
:104B60003B621E4B1B681F4AA2FB03239B0C013BAD
:104B70007B6244F61F63FB8144F61F637B647B6AA0
:104B80005B089BB2A7F840300023A7F84830002309
:104B9000A7F84230144A07F1280319461046FDF7DA
:104BA00069FA124A07F1340319461046FDF762FA12
:104BB0004FF0804207F1400319461046FDF75AFABC
:104BC00000BF054B1A68FB6C5A4001D005F09AFAF9
:104BD0005037BD4680BD00BFECAA0008140000207D
:104BE00040420F0083DE1B430004014000080040E8
:104BF00080B582B000AF7860114B01211846FDF7F7
:104C0000BCFA104B01211846FDF7B7FA4FF080436C
:104C100001211846FDF7B1FA094B01211846FDF7AD
:104C2000DAFC084B01211846FDF7D5FC4FF0804314
:104C300001211846FDF7CFFC00BF0837BD4680BDF7
:104C4000000401400008004080B582B000AF7860E9
:104C5000114B00211846FDF790FA104B0021184621
:104C6000FDF78BFA4FF0804300211846FDF785FAD7
:104C7000094B00211846FDF7AEFC084B00211846F1
:104C8000FDF7A9FC4FF0804300211846FDF7A3FC77
:104C900000BF0837BD4680BD000401400008004049
:104CA00080B582B000AF786039601148FFF778FDB9
:104CB000034683F00103DBB2002B10D07868FFF7C6
:104CC0008FFD7868FFF7ACFD39687868FFF708FF5B
:104CD00039687868FFF764FE7868FFF789FF044851
:104CE000FFF742FD7B6818460837BD4680BD00BF10
:104CF0006C01002080B582B000AF78600848FFF7F3
:104D000041FD0748FFF75CFD0346002B02D07868A1
:104D1000FFF79AFF7B6818460837BD4680BD00BF85
:104D20006C01002080B483B000AF78600B46FB704C
:104D300013463B80FB7809493A8821F81320074A3B
:104D400032F81310FB78064A52F823300A461A60EC
:104D500000BF0C37BD4680BC704700BFA0010020DB
:104D60007001002080B483B000AF78600B46FB7008
:104D7000FB78044A32F8133018460C37BD4680BC25
:104D8000704700BFA001002080B483B000AF7860FE
:104D900039607B68012B38D13B684FF6FF72934234
:104DA00033D11C4B40331C4A13601A4B3C331A4A14
:104DB0005360184B3833184A9360164B3433164AF5
:104DC000D360164B3433144A1361144B3833124AF0
:104DD0005361124B3C33104A9361104B40330E4ADF
:104DE000D3614FF0804334330B4A13624FF080435A
:104DF0003833094A53624FF080433C33064A93628A
:104E00004FF080434033044AD36200BF0C37BD46A5
:104E100080BC704700040140700100200008004081
:104E200080B500AF4FF6FF710120FFF7ADFF80BDE9
:104E300080B483B000AF0346FB71FB790833DBB26B
:104E400018460C37BD4680BC7047000090B587B04F
:104E500000AF78600B46FB70264B1B687B614FF000
:104E600000037B68FA781A707B68013342F2107194
:104E70001846FFF715FF7B6803F1080407F10801E6
:104E80004FF00A024FF000030846FDF791FDD7E905
:104E90000223204602F09CF97B682033184602F07A
:104EA00041FA786800F03AF87B680833184602F057
:104EB000B9F97B685C1CFB781846FFF7B9FF03461D
:104EC00040F2DC5219462046FFF72CFF7B68094A66
:104ED00011687A69514009D006E07B6801331846B1
:104EE000FFF708FF02F035FC05F00CF918461C37F7
:104EF000BD4690BDF4AA000880B582B000AF7860CE
:104F0000786800F01DF87B6801331846FFF7F2FE61
:104F10007B6818460837BD4680BD000080B582B06A
:104F200000AF78607B681B785B00DBB219460348F2
:104F3000FFF730FA00BF0837BD4680BDB80100203A
:104F400080B582B000AF78607B681B785B00DBB215
:104F500019460348FFF736FA00BF0837BD4680BD43
:104F6000B801002080B582B000AF78607B681B7804
:104F70005B00DBB219460448FFF73EFA03461846C9
:104F80000837BD4680BD00BFB8010020B0B582B073
:104F900000AF78600B467B80786800F033F80346FA
:104FA0001A46B7F90230134440F6C31293420CDCA0
:104FB000786800F027F803461A46B7F90230134420
:104FC000B3F5FA7F01DD012300E00023002B15D0AB
:104FD0007B685C1C7B681B781846FFF729FF03463B
:104FE0001D46786800F00EF803461A467B88134485
:104FF0009BB21A4629462046FFF794FE00BF0837A9
:10500000BD46B0BD90B583B000AF78607B685C1CD6
:105010007B681B781846FFF70BFF034619462046AE
:10502000FFF7A0FE034618460C37BD4690BDB0B54D
:1050300082B000AF78607868FFF794FF0346002BDA
:1050400021D07868FFF7DEFF03461A4640F6C31307
:105050009A4294BF01230023DBB2002B13D07B685C
:105060005C1C7B681B781846FFF7E2FE03461D4672
:105070007868FFF7C7FF034601339BB21A462946FB
:105080002046FFF74FFE00BF0837BD46B0BDB0B5A4
:1050900082B000AF78607868FFF764FF0346002BAA
:1050A0001FD07868FFF7AEFF0346B3F5FA7F8CBFD9
:1050B00001230023DBB2002B13D07B685C1C7B68D0
:1050C0001B781846FFF7B4FE03461D467868FFF7C5
:1050D00099FF0346013B9BB21A4629462046FFF73B
:1050E00021FE00BF0837BD46B0BD000080B582B0CC
:1050F00000AF786039607B68012B08D13B684FF6C0
:10510000FF72934203D100210348FFF734F900BF37
:105110000837BD4680BD00BFB801002080B500AF94
:105120004FF6FF710120FFF7E1FF80BD90B583B01E
:1051300000AF7860786800F056F90446786800F0AF
:1051400047F903469C428CBF01230023DBB218467B
:105150000C37BD4690BD80B483B000AF78607B68EB
:1051600093F8383018460C37BD4680BC704780B481
:1051700083B000AF0346FB71FB79002B01D0002305
:1051800000E0012318460C37BD4680BC7047000084
:1051900090B587B000AF78600B46FB70384B1B684A
:1051A0007B614FF000037B68FA781A707B68181DEA
:1051B000FB78344A52F83310FB78324ADB00134450
:1051C0009B881A46FEF76CFA7B6803F10C00FB78AB
:1051D0002D4A52F83310FB782B4ADB0013449B888E
:1051E0001A46FEF75DFA7B6803F11400FB78274A44
:1051F00052F83310FB78254ADB0013449B881A468B
:10520000FEF74EFA7B6803F1200407F108014FF026
:1052100001024FF000030846FDF7CAFBD7E902235D
:10522000204601F0D5FF7B68002283F8382078689B
:1052300000F046F87B682033184601F0F3FF7B68E6
:105240000F4A11687A69514015D012E07B68143317
:105250001846FEF73AFAFFE77B680C331846FEF76C
:1052600034FAFFE77B6804331846FEF72EFA02F0A3
:1052700070FA04F047FF18461C37BD4690BD00BFCA
:10528000FCAA00082CAD00083CAD00084CAD00089D
:1052900080B582B000AF78607B6814331846FEF7A3
:1052A00014FA7B680C331846FEF70FFA7B68043358
:1052B0001846FEF70AFA7B6818460837BD4680BDD7
:1052C00080B582B000AF78607B680C331846FEF77B
:1052D00016FA786800F011F900BF0837BD4680BDA6
:1052E00080B582B000AF78607B682033184602F04A
:1052F00005F80346002B16D07868FFF72CFF03460D
:10530000002B14BF01230023DBB2002B08D07868E8
:1053100000F0A3F87B680C331846FEF714FA02E09D
:10532000786800F080F800BF0837BD4680BD80B5C2
:1053300082B000AF78607B682033184601F0DEFF52
:105340000346002B02D0786800F004F800BF08374D
:10535000BD4680BD80B582B000AF78607868FFF749
:10536000E5FE0346002B09D07B680C331846FEF798
:10537000EAF97B681B6C5A1C7B681A6400BF08370B
:10538000BD4680BD80B582B000AF7860786800F01F
:10539000B4F800BF0837BD4680BD80B582B000AF0D
:1053A0007860786800F09BF800BF0837BD4680BD84
:1053B00080B483B000AF786039607B6800221A64E3
:1053C0007B683A68DA6300BF0C37BD4680BC704723
:1053D00080B483B000AF78607B681B6C18460C37D4
:1053E000BD4680BC704780B483B000AF78607B68F6
:1053F000DB6B18460C37BD4680BC704790B583B058
:1054000000AF78600B46FB707B681C1DFB7818466C
:10541000FFF7ADFE034619462046FEF780F900BFB0
:105420000C37BD4690BD80B582B000AF78607B6818
:1054300014331846FEF797F90346012B14BF0123D6
:105440000023DBB2002B04D07B6814331846FEF730
:1054500046F900BF0837BD4680BD80B582B000AFB9
:1054600078607B6814331846FEF77DF90346002BFD
:1054700014BF01230023DBB2002B04D07B6814335C
:105480001846FEF73CF900BF0837BD4680BD80B521
:1054900082B000AF78607B6893F83830002B08D07A
:1054A0007B680C331846FEF72AF97B68002283F8E4
:1054B000382000BF0837BD4680BD80B483B000AF40
:1054C00078607B6893F83830012B03D07B68012229
:1054D00083F8382000BF0C37BD4680BC704780B5CC
:1054E00082B000AF78607868FFF7E7FF7868FFF771
:1054F000B4FF00BF0837BD4680BD80B582B000AFA5
:1055000078607868FFF7C3FF7868FFF78CFF00BF0B
:105510000837BD4680BD000080B483B000AF0346AD
:105520003960FB7197F90730002B0CDA3B68DAB26F
:105530000C4997F9073003F00F03043B1201D2B274
:105540000B441A7609E03B68DAB2074997F907304D
:105550001201D2B20B4483F8002300BF0C37BD46C2
:1055600080BC704700ED00E000E100E080B582B053
:1055700000AF78607B68013BB3F1807F01D30123EA
:105580000FE00A4A7B68013B53600F214FF0FF3068
:10559000FFF7C2FF054B00229A60044B07221A60F6
:1055A000002318460837BD4680BD00BF10E000E06C
:1055B00080B582B000AF78600A4B1B680A4AA2FB34
:1055C00003239B0C1846FFF7D1FF0346002B14BFA3
:1055D00001230023DBB2002B00D0EDE700BF08372A
:1055E000BD4680BD1400002083DE1B4380B582B021
:1055F00000AF78600C4B1B7883F00103DBB2002B0B
:105600000CD07868FFF7D4FF08494FF000024FF044
:105610000003C1E90023044B01221A707B6818467D
:105620000837BD4680BD00BFC8010020C001002072
:1056300080B483B000AF7860044BD3E900231046F8
:1056400019460C37BD4680BC704700BFC001002022
:1056500080B584B000AF786039600C4B1B68FB608C
:105660004FF000033868FFF7E3FF02460B46796806
:105670000846FDF78EF9054B1A68FB685A4001D0C1
:1056800004F040FD78681037BD4680BD04AB0008CB
:1056900080B400AF064BD3E90023501C43F1000156
:1056A000034BC3E9000100BFBD4680BC704700BF8B
:1056B000C001002080B500AF064BD3E900014FF4D4
:1056C0007A724FF00003FBF7ABFC02460B46104624
:1056D000194680BDC001002080B483B000AF0346EE
:1056E000FB7197F9073003F01F02074997F907305C
:1056F0005B09012000FA02F2203341F8232000BFA9
:105700000C37BD4680BC704700E100E080B582B038
:1057100000AF78607B681B78002B02D0012B05D08E
:105720000AE001211020FCF729FC05E001214FF4DB
:105730000030FCF705FC00BF7B681B781946084A5F
:105740000B46DB005B1A9B00134404331B680121EA
:105750001846FCF7D7FB00BF0837BD4680BD00BF29
:105760005CAD000890B587B000AF7860444B1B6813
:105770007B614FF0000307F10C0300221A605A60AE
:1057800002233B7402237B747B681B7819463D4AD5
:105790000B46DB005B1A9B00134408331A687B68D6
:1057A0001B78184637490346DB001B1A9B000B4445
:1057B0000C331B681343FB607B681B781946314A26
:1057C0000B46DB005B1A9B0013441B6807F10C02BD
:1057D00011461846FCF75EF87B681B781946294A83
:1057E0000B46DB005B1A9B00134418687B681B7830
:1057F0001946244A0B46DB005B1A9B001344103306
:105800001B7899B27B681B781C461E4A2346DB0036
:105810001B1B9B00134412331B781A46FCF740F9FC
:105820007B681B781946174A0B46DB005B1A9B0006
:10583000134418687B681B781946124A0B46DB0034
:105840005B1A9B00134411331B7899B27B681B7859
:105850001C460C4A2346DB001B1B9B0013441233DF
:105860001B781A46FCF71CF900BF054B1A687B69C8
:105870005A4001D004F046FC1C37BD4690BD00BF25
:1058800008AB00085CAD000880B588B000AF786058
:105890003960264B1B68FB614FF0000307F10C03D6
:1058A00000221A605A609A60DA600C23FB823B681F
:1058B000FB607B681B7819461D4A0B46DB005B1AB0
:1058C0009B00134414331B6807F10C021146184661
:1058D000FCF7A6FE7B681B781946154A0B46DB00D1
:1058E0005B1A9B00134414331B6801211846FCF714
:1058F0005FFF7B681B7819460D4A0B46DB005B1A7D
:105900009B00134414331B68012240F225511846B2
:10591000FCF78DFF00BF054B1A68FB695A4001D0A8
:1059200004F0F0FB2037BD4680BD00BF0CAB000883
:105930005CAD000880B584B000AF7860134B1B6885
:10594000FB604FF000030023BB600123FB727B6808
:105950001B7819460E4A0B46DB005B1A9B0013446A
:10596000183393F90030DBB23B7207F10803184695
:10597000FBF718FD00BF054B1A68FB685A4001D0C1
:1059800004F0C0FB1037BD4680BD00BF10AB00085F
:105990005CAD000880B584B000AFF8600B467A605B
:1059A000FB72FB68FA7A1A70F868FFF7AFFEF868C6
:1059B000FFF7D8FE7968F868FFF766FFF868FFF729
:1059C000B9FFFB6818461037BD4680BD80B582B070
:1059D00000AF78607B681B781946104A0B46DB00E5
:1059E0005B1A9B00134414331B6800211846FCF714
:1059F000DFFE7B681B781946084A0B46DB005B1A02
:105A00009B001344183393F900301846FFF764FEE7
:105A10007B6818460837BD4680BD00BF5CAD0008F6
:105A200080B582B000AF78600B46FB707B681B7856
:105A30001A4601239340DBB21946284800F0E0F9EA
:105A4000034683F00103DBB2002B2CD07B681B786C
:105A50001A4601239340DBB21946204800F0E8F9CA
:105A60007B681B7819461E4A0B46DB005B1A9B00BD
:105A7000134414331B68FA7892B211461846FCF7A7
:105A8000B6FE7B681B781946154A0B46DB005B1A8D
:105A90009B00134414331B68012240F227711846FF
:105AA000FCF7C5FE15E07B681B781A4613465B01C0
:105AB00013441B010B4A1344FA7811461846FDF7AC
:105AC000B7F8034683F00103DBB2002B01D00023BB
:105AD00000E0012318460837BD4680BD0C0A0020AF
